:100000000C9446000C9488000C9488000C94880092
:100010000C9488000C9488000C9488000C94880040
:100020000C9488000C9488000C9488000C94880030
:100030000C9488000C9488000C9488000C94880020
:100040000C9488000C9488000C9488000C94880010
:100050000C9488000C9488000C9488000C94880000
:100060000C9488000C9488000C9488000C948800F0
:100070000C9488000C9488000C9488000C948800E0
:100080000C9488000C9488000C94880011241FBEE6
:10009000CFEFD0E1DEBFCDBF0E9452000C947500BF
:0400A000F894FFCF02
:1000A400CF93DF9300D0CDB7DEB78FEF87BB88BB8C
:1000B40017B880E487B9D09886B1856886B910925C
:1000C400900088E089B91BB886E08093950088E1A8
:1000D4008AB90E94840090E09A83898389819A81F5
:0600E4000E948000F6CF2F
:1000EA00EC010E948D000E948C00CE010E948E00BD
:0600FA00CE010E948A0005
:080100005D9BFECF8CB9089550
:080108005F9BFECF8CB108954E
:040110000C9400004B
:040114000E945000F5
:02011800089548
:02011A00089546
:02011C00089544
:00000001FF
