:040AD8000218000000
:030023000209725D
:10097200C0E0C0D075D000C00030981174082519AD
:10098200F8A6990519E51970020518C298D000D089
:04099200D0D0E032AF
:10048E003098FD7F36120A6EE4F541F542C3E51948
:10049E009410E5186480948040F3E5429420E54181
:1004AE0064809480E542500A2480FF120A6E7F8099
:1004BE0080082460FF120A6E7F88120A6EE4F543EC
:1004CE00F54474082544F8E6FF120AA00544E544F5
:1004DE0070020543C39410E5436480948040E3E4C6
:1004EE00F518F5190542E54270020541C39440E541
:0704FE0041648094804096E8
:0105050022D3
:100A45007F807E25120A57120A3212074A12048E37
:020A550080FB24
:0B080300C2A5C2A78F80D2A77F01FE14
:10080E00D3EF9400EE940040257DC7EDD394007491
:10081E0080948040127C01ECD394007480948040CC
:0E082E00031C80F31D80E4EF1F70D51E80D2E6
:01083C002299
:10092600E4FBC2A6D2A5120809E580548064807053
:10093600100BEBD394647480948040EDC2A77F00C3
:0509460022C2A77F01A1
:01094B002289
:050A6900E5462480FFBA
:0A0A6E00E4F545C2A6120803C2A772
:010A7800225B
:0A0AA000E4F545D2A6120803C2A730
:010AAA002229
:10083D00E4FA120926EF70147F01FE12080E0AEA7F
:10084D00D394647480948040E97F0022D2A6D2A50F
:10085D00C2A77F017E0012080ED2A77F017E001273
:06086D00080EAF80C2A7D7
:010873002262
:100A3200D2B2D2B47F30120A6E7F0E120A6E7F01DA
:030A4200020A6E37
:10074A007F34120A6EE4FBEBC394207480948050C9
:10075A0023EB2480FF120A6E7F80120A6EE4FAEA03
:10076A00C394207480948050087FFF120AA00A80E4
:0E077A00EE0B80D37F36120A6E7F30020A6EBD
:1008A300EFFB7A0070047F80801CEB64014A7004C4
:1008B3007F908012EB64024A70047F888008EB64A7
:0C08C300034A70027F98EF2DFF020A6EBE
:10040B007F34120A6EE4F546C3E54694207480945B
:10041B0080502C120A697F80120A6EE4F547C3E5FF
:10042B00479410748094805012120026FF120AA079
:10043B00740129F9E43AFA054780E3054680C9E4DB
:10044B00F546C3E546942074809480502C120A69BB
:10045B007F88120A6EE4F547C3E5479410748094C5
:10046B00805012120026FF120AA0740129F9E43AF7
:10047B00FA054780E3054680C97F36120A6E7F3046
:03048B00020A6EF4
:1002F000E4F53CF53DF53EF53FED541F2480F54017
:10030000EDD3941F74809480EFC4540F400524886B
:10031000F980032480F9EF540FFF7E80E4A80708DA
:100320008005CEC313CE13D8F9F53D8E3C7F341231
:100330000A6EAF40120A6EAF01120A6E12083D1229
:10034000083D753E008F3FE53F753F00F53E1208C2
:100350003DEF423FE53F423DE53E423CE53CFBAAE6
:100360003DAF40120A6EAF01120A6EAF03120AA02F
:0F037000AF02120AA07F36120A6E7F30020A6EA9
:1009D8003F065B4F666D7D077F6F81838587898BB7
:0809E8008D80828486888A8CD0
:06094C00F5A0AF49AE4822
:10095200E4FDFCE4FBFAC3EB9FEA9E50070BBB00ED
:0F096200010A80F20DBD00010CED647B4C70E4C6
:010971002263
:0B0AAB00EF1FAC0670011E4C70F6221D
:1009F0008D828C838FA0AF82AE83120952E4F5A062
:070A0000AF82AE8302095230
:0407C6008C488D4985
:1007CA008FA0900000AFA07801EF08800123D8FD28
:1007DA0012094CA3E5826407458370E9E4F583F5C1
:1007EA0082AFA07801EF08800103D8FD12094CA35B
:0807FA00E5826407458370E904
:0108020022D3
:080506008F398E388D378C36D9
:10050E00E4F53AF53BE4FFFEFDFCAB39AA38A9371A
:10051E00A836D31200754050E47B0AFAF9F8AF39C9
:10052E00AE38AD37AC361206C4AE02AF03E53B258E
:10053E00E0241AF8A60608A607053BE53B7002055F
:10054E003AAF39AE38AD37AC36E47B0AFAF9F81269
:10055E0006C48F398E388D378C36E53B25E0241A4C
:0C056E00F8A60608A607809DAE3AAF3B39
:01057A00225E
:1001AE00E4F532F5331205068E348F35AB31AA30B5
:1001BE00E52F2531FFE52E3530FEC3EB9FEE648033
:1001CE00F8EA648098400302025DEA7053EBB408CB
:1001DE0000504D9001E8F828287302020002020434
:1001EE0002020C02021002021802021C0202240277
:1001FE000228C2A28002D2A2C2A3C2A48022C2A29C
:10020E008002D2A2D2A3C2A48016C2A28002D2A21F
:10021E00C2A3D2A4800AC2A28002D2A2D2A3D2A426
:10022E00E53325E0241AF8E6FE08E624D8F58274B4
:10023E00093EF583E493F5807F507E00120AAB0BE6
:0F024E00BB00010A0533E533700205320201BE21
:01025D00227E
:100A1E00AC06AD077E707F8012003FC3E49FFF746B
:040A2E00019EFE2205
:100A5700759850758920120A1E8F8DD2ACD2AFD2ED
:020A67008E22DD
:080AC0008F993099FDC29922C3
:10025E00E4F54B75900FAF90EF640F70030202EB55
:10026E007F0A7E00120952AF90EF640F606F759097
:10027E000FAF90EF24F5601024FE6011146013246C
:10028E00077012E4F54A800D754A018008754A021E
:10029E008003754A037590F0AF90EF2450600C24E4
:1002AE00E0600C24F0600C2470800E7404800674E0
:1002BE00088002740C254AF54AAF4BEF3395E0FEE9
:1002CE00C3EF9432EE648094805012AF90EF64F0DE
:1002DE00600B7F0A7E00120952054B80DCAF4A7E0E
:0102EE00000F
:0102EF0022EC
:10067D00C2B500C2B600D2B500E4FEEEC394087454
:10068D008094805011EF1392B4EFC313FFD2B600D4
:10069D00C2B6000E80E5E4FEEEC39408748094802B
:1006AD005011ED1392B4EDC313FDD2B600C2B600D6
:0606BD000E80E5C2B5004D
:0106C3002214
:10057B00C2B500C2B600D2B500E4FDEDC394087459
:10058B008094805011EF1392B4EFC313FFD2B600D7
:10059B00C2B6000D80E500E4FDEDC39408748094B1
:1005AB0080501AA2B4E433FFC43333335480FCEECF
:1005BB00C3134CFED2B600C2B6000D80DCC2B50030
:0B05CB00D2B600C2B400D2B400AF06EC
:0105D6002202
:1008CF00E4FD7F8E12067DE4FCECC39407748094E4
:1008DF00805012EC9009E993FF74002CF8E6FD129A
:0C08EF00067D0C80E47D807F8E02067D7B
:10000300E4FBEBC39407748094805012EB9009E2F5
:0E00130093FF12057B74002BF8A6070B80E408
:0100210022BC
:0509960012099BD2A133
:10099B007F01EFD394007480948040127E02EED3DB
:0E09AB0094007480948040031E80F31F80E44B
:0109B900221B
:0F0A7900D2A0120996C2A012099BC2A102099B2A
:0A0AB600C2A0120996D2A002099B0B
:02062F00AD0715
:10063100E4FBFAEBC3940874809480501AEDC41360
:100641001313540124FF92A0ED25E0FD120996C277
:10065100A112099B0B80DCD2A012099BD2A130A070
:10066100130AEAD394C87480948040F2C2A112099B
:0B0671009B7F0022C2A112099B7F01A9
:01067C00225B
:10087400E4FDFCD2A012099BEDC39408748094801B
:10088400501AD2A112099BEC25E0FCA2A0E4334249
:0E0894000412099BC2A112099B0D80DCAF0467
:0108A2002233
:1005D700C2A58B807F017E00120600D2A77F057E11
:1005E70000120600C2A7EBC454F0F5807F017E001D
:0905F700120600D2A77F057E0068
:10060000D3EF9400EE940040257DC7EDD3940074A1
:1006100080948040127C01ECD394007480948040DC
:0E062000031C80F31D80E4EF1F70D51E80D2F6
:01062E0022A9
:0C0A8800AB07C2A7C2A61205D7C2A72266
:0C0A9400AB07C2A7D2A61205D7C2A7224A
:1009BA007F32120A887F28120A887F0C120A887FDF
:0E09CA0006120A887F01120A887F80020A88BE
:1008FB00C2B77F467E00EF1FAC0670011E4C70F630
:10090B00D2B7FEFF30B7110FBF00010ED3EF9488A3
:0A091B00EE941340EF7F00227F01ED
:0109250022AF
:0C0708001208FB7F017E001209527FCC1A
:10071400E4FBFAC2B7054DE54D7002054CEF1392A8
:10072400B7754C00754D06E54D154DAC4C70021572
:100734004C4C70F3D2B7EFC313FF0BBB00010AEBB1
:0507440064084A70CEBC
:01074900228D
:100788007D087C00C2B70FBF0000D2B70FBF0000C2
:100798000FBF0000A2B7E433C43333335480FBE9FE
:1007A800C3134BF97E007F04EF1FAA0670011E4A8F
:0D07B80070F6ED1D70011CED4C70C9AF0115
:0107C5002211
:080AC8001207087F4402071425
:080AD0001207087FBE020714A3
:100A0700E4FFFE120AC8120AD01207888F4E120797
:060A170088EFFEE54EFF32
:010A1D0022B6
:0300000002037F79
:0C037F00787FE4F6D8FD75814E0203C6BD
:10002600BB010689828A83E0225002E722BBFE02D8
:09003600E32289828A83E493220B
:10003F00C2D5EC30E709B2D5E4C39DFDE49CFCEEDC
:10004F0030E715B2D5E4C39FFFE49EFE12008BC3C9
:10005F00E49DFDE49CFC800312008B30D507C3E4C4
:06006F009FFFE49EFE224B
:1006C400C2D5E830E70FB2D5E4C39BFBE49AFAE461
:1006D40099F9E498F8EC30E717B2D51206FA12014A
:1006E4001CE4C39BFBE49AFAE499F9E498F88003C8
:1006F40012011C30D50DE4C39FFFE49EFEE49DFD72
:04070400E49CFC2253
:10007500EB9FF5F0EA9E42F0E99D42F0EC6480C802
:0600850064809845F022A2
:10038B00020A45E493A3F8E493A34003F68001F239
:10039B0008DFF48029E493A3F85407240CC8C33373
:1003AB00C4540F4420C8834004F456800146F6DF42
:1003BB00E4800B0102040810204080900AD8E47EF0
:1003CB00019360BCA3FF543F30E509541FFEE49337
:1003DB00A360010ECF54C025E060A840B8E493A3FE
:1003EB00FAE493A3F8E493A3C8C582C8CAC583CA29
:1003FB00F0A3C8C582C8CAC583CADFE9DEE780BEE1
:010ADC000019
:10008B00BC000BBE0029EF8DF084FFADF022E4CC59
:10009B00F875F008EF2FFFEE33FEEC33FCEE9DEC22
:1000AB00984005FCEE9DFE0FD5F0E9E4CEFD22ED68
:1000BB00F8F5F0EE8420D21CFEADF075F008EF2FB2
:1000CB00FFED33FD4007985006D5F0F222C398FDA3
:0500DB000FD5F0EA2240
:1000E00075F008758200EF2FFFEE33FECD33CDCCD7
:1000F00033CCC58233C5829BED9AEC99E58298405A
:100100000CF582EE9BFEED9AFDEC99FC0FD5F0D636
:10011000E4CEFBE4CDFAE4CCF9A88222B800C1B960
:100120000059BA002DEC8BF084CFCECDFCE5F0CB9E
:10013000F97818EF2FFFEE33FEED33FDEC33FCEBD7
:1001400033FB10D703994004EB99FB0FD8E5E4F992
:10015000FA227818EF2FFFEE33FEED33FDEC33FC7F
:10016000C933C910D7059BE99A4007EC9BFCE99A73
:10017000F90FD8E0E4C9FAE4CCFB2275F010EF2FB8
:10018000FFEE33FEED33FDCC33CCC833C810D707B8
:100190009BEC9AE899400AED9BFDEC9AFCE899F8F3
:0E01A0000FD5F0DAE4CDFBE4CCFAE4C8F92286
:00000001FF
