:040B1F0002180000B8
:030023000209B916
:1009B900C0E0C0D075D000C0003098117408251966
:1009C900F8A6990519E51970020518C298D000D042
:0409D900D0D0E03268
:1001AE007F34120AB5E4F541F542E5422480FF1290
:1001BE000AB57F80120AB5E4F543F5447408254468
:1001CE00F8E6FF120AE70544E54470020543C394BE
:1001DE0010E5436480948040E3E4F518F519C3E517
:1001EE00199410E5186480948040F30542E542703E
:1001FE000205419420E5416480948040ADE4F541D0
:10020E00F542E5422480FF120AB57F88120AB5E452
:10021E00F543F54474082544F8E6FF120AE7054451
:10022E00E54470020543C39410E543648094804016
:10023E00E3E4F518F519C3E5199410E518648094F4
:10024E008040F30542E542700205419420E5416489
:0F025E0080948040AD7F36120AB57F30020AB51A
:100A8C00120A797F807E25120A9E3098FD1201AEE3
:020A9C0080F8E0
:0B084A00C2A5C2A78F80D2A77F01FECD
:10085500D3EF9400EE940040257DC7EDD39400744A
:1008650080948040127C01ECD39400748094804085
:0E087500031C80F31D80E4EF1F70D51E80D29F
:010883002252
:10096D00E4FBC2A6D2A5120850E5805480648070C5
:10097D00100BEBD394647480948040EDC2A77F007C
:05098D0022C2A77F015A
:010992002242
:050AB000E5462480FF73
:0A0AB500E4F545C2A612084AC2A7E4
:010ABF002214
:0A0AE700E4F545D2A612084AC2A7A2
:010AF10022E2
:10088400E4FA12096DEF70147F01FE1208550AEAAA
:10089400D394647480948040E97F0022D2A6D2A5C8
:1008A400C2A77F017E00120855D2A77F017E0012E5
:0608B4000855AF80C2A749
:0108BA00221B
:100A7900D2B2D2B47F30120AB57F0E120AB57F0105
:030A8900020AB5A9
:100791007F34120AB5E4FBEBC3942074809480503B
:1007A10023EB2480FF120AB57F80120AB5E4FAEA2E
:1007B100C394207480948050087FFF120AE70A8056
:0E07C100EE0B80D37F36120AB57F30020AB5E8
:1008EA00EFFB7A0070047F80801CEB64014A70047D
:1008FA007F908012EB64024A70047F888008EB6460
:0C090A00034A70027F98EF2DFF020AB52F
:1004CA007F34120AB5E4F546C3E546942074809455
:1004DA0080502C120AB07F80120AB5E4F547C3E5B2
:1004EA00479410748094805012120026FF120AE773
:1004FA00740129F9E43AFA054780E3054680C9E41C
:10050A00F546C3E546942074809480502C120AB0B4
:10051A007F88120AB5E4F547C3E5479410748094BE
:10052A00805012120026FF120AE7740129F9E43AF0
:10053A00FA054780E3054680C97F36120AB57F303F
:03054A00020AB5ED
:1003AF00E4F53CF53DF53EF53FED541F2480F54057
:1003BF00EDD3941F74809480EFC4540F40052488AC
:1003CF00F980032480F9EF540FFF7E80E4A807081B
:1003DF008005CEC313CE13D8F9F53D8E3C7F341272
:1003EF000AB5AF40120AB5AF01120AB5120884124E
:1003FF000884753E008F3FE53F753F00F53E1208BC
:10040F0084EF423FE53F423DE53E423CE53CFBAADF
:10041F003DAF40120AB5AF01120AB5AF03120AE79A
:0F042F00AF02120AE77F36120AB57F30020AB514
:100A1F003F065B4F666D7D077F6F81838587898B6F
:080A2F008D80828486888A8C88
:06099300F5A0AF49AE48DB
:10099900E4FDFCE4FBFAC3EB9FEA9E50070BBB00A6
:0F09A900010A80F20DBD00010CED647B4C70E47F
:0109B800221C
:0B0AF200EF1FAC0670011E4C70F622D6
:100A37008D828C838FA0AF82AE83120999E4F5A0D3
:070A4700AF82AE83020999A2
:04080D008C488D493D
:100811008FA0900000AFA07801EF08800123D8FDE0
:10082100120993A3E5826407458370E9E4F583F532
:1008310082AFA07801EF08800103D8FD120993A3CC
:08084100E5826407458370E9BC
:01084900228C
:08054D008F398E388D378C3692
:10055500E4F53AF53BE4FFFEFDFCAB39AA38A937D3
:10056500A836D31200754050E47B0AFAF9F8AF3982
:10057500AE38AD37AC3612070BAE02AF03E53B25FF
:10058500E0241AF8A60608A607053BE53B70020518
:100595003AAF39AE38AD37AC36E47B0AFAF9F81222
:1005A500070B8F398E388D378C36E53B25E0241ABD
:0C05B500F8A60608A607809DAE3AAF3BF2
:0105C1002217
:10026D00E4F532F53312054D8E348F35AB31AA30AE
:10027D00E52F2531FFE52E3530FEC3EB9FEE648073
:10028D00F8EA648098400302031CEA7053EBB4084B
:10029D0000504D9002A7F82828730202BF0202C336
:1002AD000202CB0202CF0202D70202DB0202E302FC
:1002BD0002E7C2A28002D2A2C2A3C2A48022C2A21D
:1002CD008002D2A2D2A3C2A48016C2A28002D2A260
:1002DD00C2A3D2A4800AC2A28002D2A2D2A3D2A467
:1002ED00E53325E0241AF8E6FE08E6241FF58274AE
:1002FD000A3EF583E493F5807F507E00120AF20BDF
:0F030D00BB00010A0533E5337002053202027DA1
:01031C0022BE
:100A6500AC06AD077E707F8012003FC3E49FFF7424
:040A7500019EFE22BE
:100A9E00759850758920120A658F8DD2ACD2AFD25F
:020AAE008E2296
:080B07008F993099FDC299227B
:10031D00E4F54B75900FAF90EF640F70030203AAD5
:10032D007F0A7E00120999AF90EF640F606F759090
:10033D000FAF90EF24F5601024FE601114601324AC
:10034D00077012E4F54A800D754A018008754A025E
:10035D008003754A037590F0AF90EF2450600C2424
:10036D00E0600C24F0600C2470800E740480067420
:10037D00088002740C254AF54AAF4BEF3395E0FE29
:10038D00C3EF9432EE648094805012AF90EF64F01E
:10039D00600B7F0A7E00120999054B80DCAF4A7E07
:0103AD00004F
:0103AE00222C
:1006C400C2B500C2B600D2B500E4FEEEC39408740D
:1006D4008094805011EF1392B4EFC313FFD2B6008D
:1006E400C2B6000E80E5E4FEEEC3940874809480E4
:1006F4005011ED1392B4EDC313FDD2B600C2B6008F
:060704000E80E5C2B50005
:01070A0022CC
:1005C200C2B500C2B600D2B500E4FDEDC394087412
:1005D2008094805011EF1392B4EFC313FFD2B60090
:1005E200C2B6000D80E500E4FDEDC394087480946A
:1005F20080501AA2B4E433FFC43333335480FCEE88
:10060200C3134CFED2B600C2B6000D80DCC2B500E8
:0B061200D2B600C2B400D2B400AF06A4
:01061D0022BA
:10091600E4FD7F8E1206C4E4FCECC3940774809455
:10092600805012EC900A3093FF74002CF8E6FD120A
:0C09360006C40C80E47D807F8E0206C4A5
:10000300E4FBEBC39407748094805012EB900A29AD
:0E00130093FF1205C274002BF8A6070B80E4C1
:0100210022BC
:0509DD001209E2D2A1A5
:1009E2007F01EFD394007480948040127E02EED394
:0E09F20094007480948040031E80F31F80E404
:010A000022D3
:0F0AC000D2A01209DDC2A01209E2C2A10209E20E
:0A0AFD00C2A01209DDD2A00209E236
:02067600AD07CE
:10067800E4FBFAEBC3940874809480501AEDC41319
:100688001313540124FF92A0ED25E0FD1209DDC2E9
:10069800A11209E20B80DCD2A01209E2D2A130A09B
:1006A800130AEAD394C87480948040F2C2A1120954
:0B06B800E27F0022C2A11209E27F01D4
:0106C3002214
:1008BB00E4FDFCD2A01209E2EDC39408748094808D
:1008CB00501AD2A11209E2EC25E0FCA2A0E43342BB
:0E08DB00041209E2C2A11209E20D80DCAF0492
:0108E90022EC
:10061E00C2A58B807F017E00120647D2A77F057E82
:10062E0000120647C2A7EBC454F0F5807F017E008E
:09063E00120647D2A77F057E00D9
:10064700D3EF9400EE940040257DC7EDD39400745A
:1006570080948040127C01ECD39400748094804095
:0E066700031C80F31D80E4EF1F70D51E80D2AF
:010675002262
:0C0ACF00AB07C2A7C2A612061EC2A722D7
:0C0ADB00AB07C2A7D2A612061EC2A722BB
:100A01007F32120ACF7F28120ACF7F0C120ACF7FC2
:0E0A110006120ACF7F01120ACF7F80020ACFA1
:10094200C2B77F467E00EF1FAC0670011E4C70F6E8
:10095200D2B7FEFF30B7110FBF00010ED3EF94885C
:0A096200EE941340EF7F00227F01A6
:01096C002268
:0C074F001209427F017E001209997FCC44
:10075B00E4FBFAC2B7054DE54D7002054CEF139261
:10076B00B7754C00754D06E54D154DAC4C7002152B
:10077B004C4C70F3D2B7EFC313FF0BBB00010AEB6A
:05078B0064084A70CE75
:010790002246
:1007CF007D087C00C2B70FBF0000D2B70FBF00007B
:1007DF000FBF0000A2B7E433C43333335480FBE9B7
:1007EF00C3134BF97E007F04EF1FAA0670011E4A48
:0D07FF0070F6ED1D70011CED4C70C9AF01CE
:01080C0022C9
:080B0F0012074F7F4402075B4F
:080B170012074F7FBE02075BCD
:100A4E00E4FFFE120B0F120B171207CF8F4E120779
:060A5E00CFEFFEE54EFFA4
:010A6400226F
:0300000002043EB9
:0C043E00787FE4F6D8FD75814E0204853D
:10002600BB010689828A83E0225002E722BBFE02D8
:09003600E32289828A83E493220B
:10003F00C2D5EC30E709B2D5E4C39DFDE49CFCEEDC
:10004F0030E715B2D5E4C39FFFE49EFE12008BC3C9
:10005F00E49DFDE49CFC800312008B30D507C3E4C4
:06006F009FFFE49EFE224B
:10070B00C2D5E830E70FB2D5E4C39BFBE49AFAE419
:10071B0099F9E498F8EC30E717B2D51207411201BA
:10072B001CE4C39BFBE49AFAE499F9E498F8800380
:10073B0012011C30D50DE4C39FFFE49EFEE49DFD2A
:04074B00E49CFC220C
:10007500EB9FF5F0EA9E42F0E99D42F0EC6480C802
:0600850064809845F022A2
:10044A00020A8CE493A3F8E493A34003F68001F232
:10045A0008DFF48029E493A3F85407240CC8C333B3
:10046A00C4540F4420C8834004F456800146F6DF82
:10047A00E4800B0102040810204080900B1FE47EE8
:10048A00019360BCA3FF543F30E509541FFEE49377
:10049A00A360010ECF54C025E060A840B8E493A33E
:1004AA00FAE493A3F8E493A3C8C582C8CAC583CA69
:1004BA00F0A3C8C582C8CAC583CADFE9DEE780BE21
:010B230000D1
:10008B00BC000BBE0029EF8DF084FFADF022E4CC59
:10009B00F875F008EF2FFFEE33FEEC33FCEE9DEC22
:1000AB00984005FCEE9DFE0FD5F0E9E4CEFD22ED68
:1000BB00F8F5F0EE8420D21CFEADF075F008EF2FB2
:1000CB00FFED33FD4007985006D5F0F222C398FDA3
:0500DB000FD5F0EA2240
:1000E00075F008758200EF2FFFEE33FECD33CDCCD7
:1000F00033CCC58233C5829BED9AEC99E58298405A
:100100000CF582EE9BFEED9AFDEC99FC0FD5F0D636
:10011000E4CEFBE4CDFAE4CCF9A88222B800C1B960
:100120000059BA002DEC8BF084CFCECDFCE5F0CB9E
:10013000F97818EF2FFFEE33FEED33FDEC33FCEBD7
:1001400033FB10D703994004EB99FB0FD8E5E4F992
:10015000FA227818EF2FFFEE33FEED33FDEC33FC7F
:10016000C933C910D7059BE99A4007EC9BFCE99A73
:10017000F90FD8E0E4C9FAE4CCFB2275F010EF2FB8
:10018000FFEE33FEED33FDCC33CCC833C810D707B8
:100190009BEC9AE899400AED9BFDEC9AFCE899F8F3
:0E01A0000FD5F0DAE4CDFBE4CCFAE4C8F92286
:00000001FF
