:040AD5000218000003
:0300230002096F60
:10096F00C0E0C0D075D000C00030981174082519B0
:10097F00F8A6990519E51970020518C298D000D08C
:04098F00D0D0E032B2
:10048E007F34120A6BE4F541F542C3E5199410E589
:10049E00186480948040F3E5429420E54164809492
:1004AE0080E542500A2480FF120A6B7F8080082468
:1004BE0060FF120A6B7F88120A6BE4F543F54474F1
:1004CE00082544F8E6FF120A9D0544E5447002052E
:1004DE0043C39410E5436480948040E3E4F518F53B
:1004EE00190542E54270020541C39440E54164801E
:0404FE009480409610
:0105020022D6
:100A42007FC07E12120A54120A2F3098FD12048EB1
:020A520080F82A
:0B080000C2A5C2A78F80D2A77F01FE17
:10080B00D3EF9400EE940040257DC7EDD394007494
:10081B0080948040127C01ECD394007480948040CF
:0E082B00031C80F31D80E4EF1F70D51E80D2E9
:01083900229C
:10092300E4FBC2A6D2A5120806E580548064807059
:10093300100BEBD394647480948040EDC2A77F00C6
:0509430022C2A77F01A4
:01094800228C
:050A6600E5462480FFBD
:0A0A6B00E4F545C2A6120800C2A778
:010A7500225E
:0A0A9D00E4F545D2A6120800C2A736
:010AA700222C
:10083A00E4FA120923EF70147F01FE12080B0AEA88
:10084A00D394647480948040E97F0022D2A6D2A512
:10085A00C2A77F017E0012080BD2A77F017E001279
:06086A00080BAF80C2A7DD
:010870002265
:100A2F00D2B2D2B47F30120A6B7F0E120A6B7F01E3
:030A3F00020A6B3D
:100747007F34120A6BE4FBEBC394207480948050CF
:1007570023EB2480FF120A6B7F80120A6BE4FAEA0C
:10076700C394207480948050087FFF120A9D0A80EA
:0E077700EE0B80D37F36120A6B7F30020A6BC6
:1008A000EFFB7A0070047F80801CEB64014A7004C7
:1008B0007F908012EB64024A70047F888008EB64AA
:0C08C000034A70027F98EF2DFF020A6BC4
:10040B007F34120A6BE4F546C3E54694207480945E
:10041B0080502C120A667F80120A6BE4F547C3E505
:10042B00479410748094805012120026FF120A9D7C
:10043B00740129F9E43AFA054780E3054680C9E4DB
:10044B00F546C3E546942074809480502C120A66BE
:10045B007F88120A6BE4F547C3E5479410748094C8
:10046B00805012120026FF120A9D740129F9E43AFA
:10047B00FA054780E3054680C97F36120A6B7F3049
:03048B00020A6BF7
:1002F000E4F53CF53DF53EF53FED541F2480F54017
:10030000EDD3941F74809480EFC4540F400524886B
:10031000F980032480F9EF540FFF7E80E4A80708DA
:100320008005CEC313CE13D8F9F53D8E3C7F341231
:100330000A6BAF40120A6BAF01120A6B12083A1235
:10034000083A753E008F3FE53F753F00F53E1208C5
:100350003AEF423FE53F423DE53E423CE53CFBAAE9
:100360003DAF40120A6BAF01120A6BAF03120A9D38
:0F037000AF02120A9D7F36120A6B7F30020A6BB2
:1009D5003F065B4F666D7D077F6F81838587898BBA
:0809E5008D80828486888A8CD3
:06094900F5A0AF49AE4825
:10094F00E4FDFCE4FBFAC3EB9FEA9E50070BBB00F0
:0F095F00010A80F20DBD00010CED647B4C70E4C9
:01096E002266
:0B0AA800EF1FAC0670011E4C70F62220
:1009ED008D828C838FA0AF82AE8312094FE4F5A068
:0709FD00AF82AE8302094F37
:0407C3008C488D4988
:1007C7008FA0900000AFA07801EF08800123D8FD2B
:1007D700120949A3E5826407458370E9E4F583F5C7
:1007E70082AFA07801EF08800103D8FD120949A361
:0807F700E5826407458370E907
:0107FF0022D7
:080503008F398E388D378C36DC
:10050B00E4F53AF53BE4FFFEFDFCAB39AA38A9371D
:10051B00A836D31200754050E47B0AFAF9F8AF39CC
:10052B00AE38AD37AC361206C1AE02AF03E53B2594
:10053B00E0241AF8A60608A607053BE53B70020562
:10054B003AAF39AE38AD37AC36E47B0AFAF9F8126C
:10055B0006C18F398E388D378C36E53B25E0241A52
:0C056B00F8A60608A607809DAE3AAF3B3C
:010577002261
:1001AE00E4F532F5331205038E348F35AB31AA30B8
:1001BE00E52F2531FFE52E3530FEC3EB9FEE648033
:1001CE00F8EA648098400302025DEA7053EBB408CB
:1001DE0000504D9001E8F828287302020002020434
:1001EE0002020C02021002021802021C0202240277
:1001FE000228C2A28002D2A2C2A3C2A48022C2A29C
:10020E008002D2A2D2A3C2A48016C2A28002D2A21F
:10021E00C2A3D2A4800AC2A28002D2A2D2A3D2A426
:10022E00E53325E0241AF8E6FE08E624D5F58274B7
:10023E00093EF583E493F5807F507E00120AA80BE9
:0F024E00BB00010A0533E533700205320201BE21
:01025D00227E
:100A1B00AC06AD077E707F8012003FC3E49FFF746E
:040A2B00019EFE2208
:100A5400759850758920120A1B8F8DD2ACD2AFD2F3
:020A64008E22E0
:080ABD008F993099FDC29922C6
:10025E00E4F54B75900FAF90EF640F70030202EB55
:10026E007F0A7E0012094FAF90EF640F606F75909A
:10027E000FAF90EF24F5601024FE6011146013246C
:10028E00077012E4F54A800D754A018008754A021E
:10029E008003754A037590F0AF90EF2450600C24E4
:1002AE00E0600C24F0600C2470800E7404800674E0
:1002BE00088002740C254AF54AAF4BEF3395E0FEE9
:1002CE00C3EF9432EE648094805012AF90EF64F0DE
:1002DE00600B7F0A7E0012094F054B80DCAF4A7E11
:0102EE00000F
:0102EF0022EC
:10067A00C2B500C2B600D2B500E4FEEEC394087457
:10068A008094805011EF1392B4EFC313FFD2B600D7
:10069A00C2B6000E80E5E4FEEEC39408748094802E
:1006AA005011ED1392B4EDC313FDD2B600C2B600D9
:0606BA000E80E5C2B50050
:0106C0002217
:10057800C2B500C2B600D2B500E4FDEDC39408745C
:100588008094805011EF1392B4EFC313FFD2B600DA
:10059800C2B6000D80E500E4FDEDC39408748094B4
:1005A80080501AA2B4E433FFC43333335480FCEED2
:1005B800C3134CFED2B600C2B6000D80DCC2B50033
:0B05C800D2B600C2B400D2B400AF06EF
:0105D3002205
:1008CC00E4FD7F8E12067AE4FCECC39407748094EA
:1008DC00805012EC9009E693FF74002CF8E6FD12A0
:0C08EC00067A0C80E47D807F8E02067A84
:10000300E4FBEBC39407748094805012EB9009DFF8
:0E00130093FF12057874002BF8A6070B80E40B
:0100210022BC
:05099300120998D2A139
:100998007F01EFD394007480948040127E02EED3DE
:0E09A80094007480948040031E80F31F80E44E
:0109B600221E
:0F0A7600D2A0120993C2A0120998C2A102099836
:0A0AB300C2A0120993D2A002099814
:02062C00AD0718
:10062E00E4FBFAEBC3940874809480501AEDC41363
:10063E001313540124FF92A0ED25E0FD120993C27D
:10064E00A11209980B80DCD2A0120998D2A130A079
:10065E00130AEAD394C87480948040F2C2A112099E
:0B066E00987F0022C2A11209987F01B2
:01067900225E
:10087100E4FDFCD2A0120998EDC394087480948021
:10088100501AD2A1120998EC25E0FCA2A0E433424F
:0E08910004120998C2A11209980D80DCAF0470
:01089F002236
:1005D400C2A58B807F017E001205FDD2A77F057E18
:1005E400001205FDC2A7EBC454F0F5807F017E0024
:0905F4001205FDD2A77F057E006F
:1005FD00D3EF9400EE940040257DC7EDD3940074A5
:10060D0080948040127C01ECD394007480948040DF
:0E061D00031C80F31D80E4EF1F70D51E80D2F9
:01062B0022AC
:0C0A8500AB07C2A7C2A61205D4C2A7226C
:0C0A9100AB07C2A7D2A61205D4C2A72250
:1009B7007F32120A857F28120A857F0C120A857FEB
:0E09C70006120A857F01120A857F80020A85CA
:1008F800C2B77F467E00EF1FAC0670011E4C70F633
:10090800D2B7FEFF30B7110FBF00010ED3EF9488A6
:0A091800EE941340EF7F00227F01F0
:0109220022B2
:0C0705001208F87F017E0012094F7FCC23
:10071100E4FBFAC2B7054DE54D7002054CEF1392AB
:10072100B7754C00754D06E54D154DAC4C70021575
:100731004C4C70F3D2B7EFC313FF0BBB00010AEBB4
:0507410064084A70CEBF
:010746002290
:100785007D087C00C2B70FBF0000D2B70FBF0000C5
:100795000FBF0000A2B7E433C43333335480FBE901
:1007A500C3134BF97E007F04EF1FAA0670011E4A92
:0D07B50070F6ED1D70011CED4C70C9AF0118
:0107C2002214
:080AC5001207057F440207112E
:080ACD001207057FBE020711AC
:100A0400E4FFFE120AC5120ACD1207858F4E1207A3
:060A140085EFFEE54EFF38
:010A1A0022B9
:0300000002037F79
:0C037F00787FE4F6D8FD75814E0203C6BD
:10002600BB010689828A83E0225002E722BBFE02D8
:09003600E32289828A83E493220B
:10003F00C2D5EC30E709B2D5E4C39DFDE49CFCEEDC
:10004F0030E715B2D5E4C39FFFE49EFE12008BC3C9
:10005F00E49DFDE49CFC800312008B30D507C3E4C4
:06006F009FFFE49EFE224B
:1006C100C2D5E830E70FB2D5E4C39BFBE49AFAE464
:1006D10099F9E498F8EC30E717B2D51206F7120150
:1006E1001CE4C39BFBE49AFAE499F9E498F88003CB
:1006F10012011C30D50DE4C39FFFE49EFEE49DFD75
:04070100E49CFC2256
:10007500EB9FF5F0EA9E42F0E99D42F0EC6480C802
:0600850064809845F022A2
:10038B00020A42E493A3F8E493A34003F68001F23C
:10039B0008DFF48029E493A3F85407240CC8C33373
:1003AB00C4540F4420C8834004F456800146F6DF42
:1003BB00E4800B0102040810204080900AD5E47EF3
:1003CB00019360BCA3FF543F30E509541FFEE49337
:1003DB00A360010ECF54C025E060A840B8E493A3FE
:1003EB00FAE493A3F8E493A3C8C582C8CAC583CA29
:1003FB00F0A3C8C582C8CAC583CADFE9DEE780BEE1
:010AD900001C
:10008B00BC000BBE0029EF8DF084FFADF022E4CC59
:10009B00F875F008EF2FFFEE33FEEC33FCEE9DEC22
:1000AB00984005FCEE9DFE0FD5F0E9E4CEFD22ED68
:1000BB00F8F5F0EE8420D21CFEADF075F008EF2FB2
:1000CB00FFED33FD4007985006D5F0F222C398FDA3
:0500DB000FD5F0EA2240
:1000E00075F008758200EF2FFFEE33FECD33CDCCD7
:1000F00033CCC58233C5829BED9AEC99E58298405A
:100100000CF582EE9BFEED9AFDEC99FC0FD5F0D636
:10011000E4CEFBE4CDFAE4CCF9A88222B800C1B960
:100120000059BA002DEC8BF084CFCECDFCE5F0CB9E
:10013000F97818EF2FFFEE33FEED33FDEC33FCEBD7
:1001400033FB10D703994004EB99FB0FD8E5E4F992
:10015000FA227818EF2FFFEE33FEED33FDEC33FC7F
:10016000C933C910D7059BE99A4007EC9BFCE99A73
:10017000F90FD8E0E4C9FAE4CCFB2275F010EF2FB8
:10018000FFEE33FEED33FDCC33CCC833C810D707B8
:100190009BEC9AE899400AED9BFDEC9AFCE899F8F3
:0E01A0000FD5F0DAE4CDFBE4CCFAE4C8F92286
:00000001FF
